:100000000C9463000C948B000C948B000C948B006C
:100010000C948B000C948B000C948B000C9463015B
:100020000C948B000C948B000C948B000C948B0024
:100030000C948B000C948B000C948B000C948B0014
:100040000C94850D0C948B000C9467100C949910F3
:100050000C948B000C948B000C948B000C948B00F4
:100060000C948B000C948B0000000008000201002F
:100070000003040700000000000000000102040863
:100080001020408001020408102001020408102002
:10009000040404040404040402020202020203032E
:1000A00003030303000000002300260029000000D2
:1000B0000000250028002B0000000000240027007D
:1000C0002A007F0DC91011241FBECFEFD8E0DEBF7C
:1000D000CDBF11E0A0E0B1E0E4E0F9E202C005909C
:1000E0000D92A03AB107D9F723E0A0EAB1E001C030
:1000F0001D92A036B207E1F710E0C6ECD0E004C0D4
:100100002297FE010E946D14C23CD107C9F70E94DC
:10011000D0110C9480140C940000CF92DF92EF92D7
:10012000FF92CF93DF93EC01882777FD8095982F7E
:100130000E94E4126B017C0120E030E040E45FE3C8
:100140000E94941320E030E048E452E40E944912F7
:100150000E94B112C617D707ECF020E030E040EA69
:100160005FE3C701B6010E94941320E030E048E449
:1001700052E40E94491220E030E040E85FE30E9430
:10018000E1110E94B11221E06C177D070CF420E010
:10019000822F01C080E090E0DF91CF91FF90EF903F
:1001A000DF90CF900895CF92DF92EF92FF92CF939E
:1001B000DF93EC016C597F4F882777FD8095982F4E
:1001C0000E94E4126B017C0120E030E040E45FE338
:1001D0000E94941320E030E048E452E40E94491267
:1001E0000E94B112C617D707ECF020E030E040EAD9
:1001F0005FE3C701B6010E94941320E030E048E4B9
:1002000052E40E94491220E030E040E85FE30E949F
:10021000E1110E94B11221E06C177D070CF420E07F
:10022000822F01C080E090E0DF91CF91FF90EF90AE
:10023000DF90CF900895CF92DF92EF92FF92CF930D
:10024000DF93EC0164567109882777FD8095982F1C
:100250000E94E4126B017C0120E030E040E45FE3A7
:100260000E94941320E030E048E452E40E944912D6
:100270000E94B112C617D707ECF020E030E040EA48
:100280005FE3C701B6010E94941320E030E048E428
:1002900052E40E94491220E030E040E85FE30E940F
:1002A000E1110E94B11221E06C177D070CF420E0EF
:1002B000822F01C080E090E0DF91CF91FF90EF901E
:1002C000DF90CF9008951F920F920FB60F921124D6
:1002D0002F933F934F935F936F937F938F939F934E
:1002E000AF93BF93EF93FF938091A1010E94F90E0A
:1002F0002091A5013091A6012F5F3F4F3093A601B9
:100300002093A5019091A401953618F096E0909362
:10031000A0019091A0019430C9F128F4923069F0C5
:100320009330D1F05EC0953009F451C0963009F099
:1003300058C091E09093710251C0811152C0209138
:10034000A5013091A6012436310508F442C010926F
:1003500071021092A4011CC0813009F042C0E091EA
:10036000A40191E09E0F9093A401F0E02091A501DB
:100370003091A601EE0FFF1FE056FE4F3087278316
:100380001092A6011092A50194E029C0811117C016
:10039000E091A40191E09E0F9093A401F0E02091E0
:1003A000A5013091A601EE0FFF1FE056FE4F3087EA
:1003B00027831092A6011092A50193E010C020910E
:1003C000A5013091A6012536310558F007C08111ED
:1003D00008C01092A6011092A50103C095E0909369
:1003E000A0019091A3019923B9F081110AC08091D5
:1003F000A201882321F08091A20161E009C02D9A19
:100400000BC08091A201882331F08091A20160E0AD
:100410000E94C30E01C02D98FF91EF91BF91AF9143
:100420009F918F917F916F915F914F913F912F910C
:100430000F900FBE0F901F9018956093A10110921E
:10044000A3010895F89482E08093B0008093B100F6
:1004500094E69093B3001092B20080937000789469
:100460008093A0011092A4018091A10160E00C94FE
:100470008A0E82E08093A0011092A40108958F92C9
:100480009F92AF92BF92CF92DF92EF92FF927B0149
:10049000BA0180E090E00E94E2124B015C01B701DA
:1004A00080E090E00E94E2126B017C012DEC3CECBC
:1004B0004CE45FE30E9494139B01AC01C501B401BD
:1004C0000E94451287FD17C02DEC3CEC4CE45FE325
:1004D000C501B4010E9494139B01AC01C701B60190
:1004E0000E944512992787FD90958827990F881FAC
:1004F0009927019602C080E090E0FF90EF90DF9096
:10050000CF90BF90AF909F908F9008958F929F92C1
:10051000AF92BF92CF92DF92EF92FF920F931F9311
:10052000CF93DF936C01EB01EC84FD8486E0E81649
:10053000F1040CF444C0EE0CFF1C06E010E045ECA6
:10054000842E4DE9942E4CE1A42E41E8B42E8A85E8
:100550009B85FC01E00FF11F40815181F801349728
:10056000E80FF91F60817181C6010E943F02FC0102
:10057000A501940163E971E080E091E00E94F71326
:100580004F01AA2497FCA094BA2C86269726A82669
:10059000B9260E5F1F4F0E151F05C9F68C829D826E
:1005A000AE82BF8280E290E0998788878FEF9FEFCD
:1005B0009983888361E070E080E090E003C060E0B0
:1005C00070E0CB01DF91CF911F910F91FF90EF90E1
:1005D000DF90CF90BF90AF909F908F9008950F9332
:1005E0001F93CF93DF938C01EB0187EA91E09B8708
:1005F0008A878091A40190E09D878C878091710209
:1006000090E09F878E878091A001853009F05EC0C1
:10061000C8010E944E06882319F081E090E058C07E
:10062000BE01C8010E94070B8111F7CFBE01C801AE
:100630000E94630A8111F1CFBE01C8010E94BF056B
:100640008111EBCFBE01C8010E9425088111E5CFC1
:10065000BE01C8010E94CC088111DFCFBE01C801D4
:100660000E94ED068111D9CFBE01C8010E9432055A
:100670008111D3CFBE01C8010E9479048111CDCF71
:10068000BE01C8010E94C4098111C7CFBE01C801C3
:100690000E94A20B8111C1CFBE01C8010E946D034F
:1006A0008111BBCFBE01C8010E94FE038111B5CFED
:1006B000BE01C8010E948602672B682B692B09F0D6
:1006C000ACCF82E08093A0011092A40180E090E082
:1006D000DF91CF911F910F910895AF92BF92CF926A
:1006E000DF92EF92FF920F931F93CF93DF93EB0173
:1006F0008091A401883510F480E075C0EA85FB85FF
:100700008281938160E672E20E94D300892BA1F37B
:10071000EA85FB858481958164E971E10E941B0172
:10072000892B51F3BEE1CB2ED12C1DE1E12EF12C12
:1007300000E010E08091A40190E00497E816F9062B
:10074000C4F5EA85FB85C701880F991FE80FF91FDB
:100750008081918164EF71E00E94D300892B61F266
:100760005601AA0CBB1CEA85FB85EA0DFB1D8081A6
:10077000918168E572E00E941B01892B21F0000F36
:10078000111F01600EC0EA85FB85EA0DFB1D80810B
:10079000918164EA76E00E941B01892B49F0000FE9
:1007A000111F82E0E80EF11C82E0C80ED11CC2CFFE
:1007B000760181E0E81AF108F594E794F986E88675
:1007C0008AE2E816F1040CF497CFC801AA2797FD36
:1007D000A095BA2F8C839D83AE83BF8389E090E080
:1007E0009983888381E0DF91CF911F910F91FF90D2
:1007F000EF90DF90CF90BF90AF900895AF92BF92EF
:10080000CF92DF92EF92FF920F931F93CF93DF93DC
:10081000EB018091A401803211F080E05FC0EA8595
:10082000FB85828193816CE271E00E94D300892B69
:10083000A1F3EA85FB85848195816EEE72E00E94CA
:100840001B01892B51F306E010E0C12CD12C76015D
:10085000EA85FB85E00FF11F808191816CE271E0F8
:100860000E94D300892BC9F2580182E0A80EB11C66
:10087000EA85FB85EA0DFB1D8081918168E077E0C8
:100880000E941B01892B39F0CC0CDD1CEE1CFF1CD7
:100890006894C0F811C0EA85FB85EA0DFB1D8081D4
:1008A00091816EEE72E00E941B01892B09F4B5CF95
:1008B000CC0CDD1CEE1CFF1C0C5F1F4F0E33110512
:1008C00039F68EE090E099878887CC82DD82EE82CF
:1008D000FF828FE090E09983888381E0DF91CF9160
:1008E0001F910F91FF90EF90DF90CF90BF90AF904E
:1008F0000895AF92BF92CF92DF92EF92FF920F9343
:100900001F93CF93DF93EB018091A401823261F5B5
:10091000EA85FB858281938168E572E00E94D300BD
:10092000892B11F18091A40190E081509048880FAB
:10093000991FEA85FB85E80FF91F8081918168E5A1
:1009400072E00E94D300892B79F0198618868FEF08
:100950009FEFDC018C839D83AE83BF8386E090E0B4
:100960009983888381E073C0EA85FB8582819381C6
:1009700060E47FE10E94D300892B21F08091A401E3
:10098000813210F480E063C0EA85FB858481958123
:1009900060EA7FE00E941B01892BA1F358E0A52E9D
:1009A000B12C03E010E0C12CD12C7601EA85FB8547
:1009B000C801880F991FE80FF91F8081918168E5B0
:1009C00072E00E94D300892BE9F2EA85FB85EA0DEB
:1009D000FB1D8081918160E476E00E941B01892BE0
:1009E00039F0CC0CDD1CEE1CFF1C6894C0F811C063
:1009F000EA85FB85EA0DFB1D8081918166E272E04C
:100A00000E941B01892B09F4BDCFCC0CDD1CEE1C10
:100A1000FF1C0E5F1F4F84E0A80EB11C03321105AE
:100A200029F6EA85FB85EA5BFF4F8081918168E5C5
:100A300072E00E94D300892B09F4A4CF80E190E0FA
:100A400099878887CC82DD82EE82FF8287CFDF9113
:100A5000CF911F910F91FF90EF90DF90CF90BF90BB
:100A6000AF900895AF92BF92CF92DF92EF92FF9234
:100A70000F931F93CF93DF93EB018091A4018933F0
:100A800010F480E071C0EA85FB858281938160E487
:100A90007FE10E94D300892BA1F3EA85FB85848145
:100AA000958160EA7FE00E941B01892B51F338E0B9
:100AB000A32EB12C03E010E0C12CD12C7601EA85E5
:100AC000FB85C801880F991FE80FF91F808191816C
:100AD00068E572E00E94D300892B99F2EA85FB85D4
:100AE000EA0DFB1D8081918160E476E00E941B018C
:100AF000892B39F0CC0CDD1CEE1CFF1C6894C0F86F
:100B000011C0EA85FB85EA0DFB1D8081918166E2BB
:100B100072E00E941B01892B09F4B3CFCC0CDD1CC1
:100B2000EE1CFF1C0E5F1F4F84E0A80EB11C0B33A0
:100B3000110529F6EA85FB85EA58FF4F80819181EE
:100B400068E572E00E94D300892B09F49ACF8CE10A
:100B500090E099878887CC82DD82EE82FF828AE0EE
:100B600090E09983888381E0DF91CF911F910F916D
:100B7000FF90EF90DF90CF90BF90AF9008956F926D
:100B80007F928F929F92AF92BF92CF92DF92EF921D
:100B9000FF920F931F93CF93DF93EB018091A401FA
:100BA000823208F461C0EA85FB85828193816EE51B
:100BB00071E00E94D300892B09F456C063E0A62E91
:100BC000B12C02E010E0C12CD12C760135018091CE
:100BD000A40190E0A816B906E4F54801880C991C18
:100BE000EA85FB85E80DF91D808191816EE977E04A
:100BF0000E94D300892B39F0CC0CDD1CEE1CFF1CAD
:100C00006894C0F810C0EA85FB85E80DF91D808165
:100C100091816EEE72E00E94D300892B29F1CC0CF9
:100C2000DD1CEE1CFF1CC501880F991FEA85FB85A2
:100C3000E80FF91F808191816EE571E00E941B0130
:100C400022E0A20EB11C892B19F00E5F1F4FBECF00
:100C500083010150110915950795198708870031FF
:100C6000110524F41986188680E009C0CC82DD8243
:100C7000EE82FF828CE090E09983888381E0DF91AF
:100C8000CF911F910F91FF90EF90DF90CF90BF9089
:100C9000AF909F908F907F906F900895AF92BF928A
:100CA000CF92DF92EF92FF920F931F93CF93DF9338
:100CB000EB01EA85FB858281938168E273E20E9401
:100CC000D300892B11F480E07DC08091A401843091
:100CD00019F5EA85FB85848195816AEC78E00E94AC
:100CE0001B01892BC9F0EA85FB858681978160E32A
:100CF00072E00E94D300892B79F0198618868FEF55
:100D00009FEFDC018C839D83AE83BF8383E090E003
:100D10009983888381E056C08091A401843498F23D
:100D2000EA85FB858481958164E971E10E941B015C
:100D3000892B49F206E010E0C12CD12C7601EA851E
:100D4000FB85E00FF11F8081918160E372E00E94DA
:100D5000D300892B09F4B7CF580182E0A80EB11C4B
:100D6000EA85FB85EA0DFB1D808191816AE976E0C9
:100D70000E941B01892B39F0CC0CDD1CEE1CFF1CE2
:100D80006894C0F811C0EA85FB85EA0DFB1D8081DF
:100D9000918160E372E00E941B01892B09F493CFDB
:100DA000CC0CDD1CEE1CFF1C0C5F1F4F0638110520
:100DB00031F680E290E099878887CC82DD82EE82EE
:100DC000FF82A4CFDF91CF911F910F91FF90EF9001
:100DD000DF90CF90BF90AF9008958F929F92AF9287
:100DE000BF92CF92DF92EF92FF920F931F93CF9318
:100DF000DF9300D000D0CDB7DEB74B01DB011A96F0
:100E0000ED91FC911B97828193816EEA7DE00E94B7
:100E1000D300892B11F480E093C0D4011A96ED9190
:100E2000FC911B978481958166ED76E00E94D3004A
:100E3000892B89F3E6E0EE2EF12C20E030E040E053
:100E400050E0A12CB12CC12CD12CD4011A96ED91DB
:100E5000FC911B97EE0DFF1D8081918166EF71E083
:100E600029833A834B835C830E94D300892B99F2B8
:100E700087010E5F1F4FD4011A96ED91FC911B97CD
:100E8000E00FF11F808191816CED74E00E941B01E5
:100E900029813A814B815C81892B39F0B501C601EA
:100EA00001E00E94341421601DC0D4011A96ED9116
:100EB000FC911B97E00FF11F8081918160E971E047
:100EC00029833A834B835C830E941B0129813A81E9
:100ED0004B815C81892B09F49ECFB501C60101E0ED
:100EE0000E9434145B016C01B4E0EB0EF11CE6ECE3
:100EF000EE16F10409F0A9CFD40114962C9314979F
:100F000015963C93159716964C93169717965C93E7
:100F10001797B501C60100E20E944F1412962C9358
:100F2000129713963C93139785E090E011969C934B
:100F30008E9380E390E019969C938E93189781E0AE
:100F40000F900F900F900F90DF91CF911F910F9105
:100F5000FF90EF90DF90CF90BF90AF909F908F90D9
:100F600008958F929F92AF92BF92CF92DF92EF92AD
:100F7000FF920F931F93CF93DF937A016901DA01F8
:100F8000CD91DC91FB0184859585C817D9070CF0BC
:100F90004AC0CE01880F991F0284F385E02DE80F27
:100FA000F91FA080B180C170DD27F1E0CF27209725
:100FB00019F484E690E002C08CE99FEF4801880EA6
:100FC000991EB401C5010E948D00892B99F4800EF1
:100FD000911EB401C5010E948D00892B71F4B401EA
:100FE000600F711FC5010E948D00892BF9F023E06D
:100FF00030E005C021E030E002C022E030E0D60160
:101000008D919C91119701968217930744F0F601F8
:1010100011821082D7018D919C91119701968D9329
:101020009C93CE0105C081E090E002C08FEF9FEF5E
:10103000DF91CF911F910F91FF90EF90DF90CF90B4
:10104000BF90AF909F908F9008954F925F926F9254
:101050007F928F929F92AF92BF92CF92DF92EF9248
:10106000FF920F931F93CF93DF9300D000D0CDB7A3
:10107000DEB76C017B011C821B8281E090E09A83C9
:1010800089838091A4018D3010F480E070C009E75D
:1010900013E09E012D5F3F4FAE014F5F5F4FC601D2
:1010A0000E94B107892B89F79E012D5F3F4FAE014A
:1010B0004F5F5F4FB701C6010E94B107019729F743
:1010C0009E012D5F3F4FAE014F5F5F4FB701C601DD
:1010D0000E94B107892BC9F6412C512C3201A12C59
:1010E000B12C8091A40190E029813A812817390719
:1010F0009CF509E713E09E012D5F3F4FAE014F5F66
:101100005F4FB701C6010E94B1074C019E012D5FE0
:101110003F4FAE014F5F5F4FB701C6010E94B1075D
:1011200021E08216910451F4892B09F0AECF440CD2
:10113000551C661C771C689440F80AC0892809F081
:10114000A4CF019709F0A1CF440C551C661C771C55
:101150008FEFA81AB80AC5CFF701B186A0864482DE
:1011600055826682778281E090E0918380830F9040
:101170000F900F900F90DF91CF911F910F91FF90E3
:10118000EF90DF90CF90BF90AF909F908F907F9027
:101190006F905F904F9008952F923F924F925F9281
:1011A0006F927F928F929F92AF92BF92CF92DF9277
:1011B000EF92FF920F931F93CF93DF9300D000D055
:1011C000CDB7DEB76C017B011C821B82DB011C9654
:1011D0008D919C911D971816190614F080E0BDC0E2
:1011E000DB011A96ED91FC911B9782E090E09A83C7
:1011F0008983828193816AE67AE00E94D300892BF9
:1012000069F3D7011A96ED91FC911B9789819A8118
:101210009C012F5F3F4F3A832983880F991FE80F66
:10122000F91F8081918169E773E00E941B01892B7E
:10123000A9F20CEB11E09E012D5F3F4FAE014F5F15
:101240005F4FB701C6010E94B107892B39F69E0195
:101250002D5F3F4FAE014F5F5F4FB701C6010E9448
:10126000B107019709F0BACF212C312C2101A12C13
:10127000B12C29813A81F701848595852817390792
:101280000CF060C00CEB11E09E012D5F3F4FAE01F2
:101290004F5F5F4FB701C6010E94B1073C01B3E049
:1012A000AB16B10491F00CEB11E09E012D5F3F4FA6
:1012B000AE014F5F5F4FB701C6010E94B1074C01FD
:1012C000E3E0AE16B10409F510C00CEB11E09E018D
:1012D0002D5F3F4FAE014F5F5F4FB701C6010E94C8
:1012E000B10768167906F9F279CF0CEB11E09E018F
:1012F0002D5F3F4FAE014F5F5F4FB701C6010E94A8
:10130000B1078816990609F069CF6114710459F480
:101310008A94892809F062CF220C331C441C551C86
:10132000689420F80BC06A94672809F057CF892881
:1013300009F054CF220C331C441C551CAFEFAA1AE1
:10134000BA0A97CFB186A086248235824682578218
:1013500082E090E09183808381E00F900F900F9066
:101360000F90DF91CF911F910F91FF90EF90DF9041
:10137000CF90BF90AF909F908F907F906F905F9035
:101380004F903F902F900895AF92BF92CF92DF92EF
:10139000EF92FF920F931F93CF93DF93EB01EA85B8
:1013A000FB858281938168E873E10E94D300892BD9
:1013B00011F480E07DC08091A401843019F5EA85A4
:1013C000FB85848195816AEC78E00E941B01892B62
:1013D000C9F0EA85FB858681978160E372E00E940F
:1013E000D300892B79F0198618868FEF9FEFDC01E7
:1013F0008C839D83AE83BF8387E090E0998388834D
:1014000081E056C08091A401843498F2EA85FB857E
:101410008481958168E873E10E941B01892B49F260
:1014200006E010E0C12CD12C7601EA85FB85E00FA7
:10143000F11F8081918160E372E00E94D300892BCB
:1014400009F4B7CF580182E0A80EB11CEA85FB85EC
:10145000EA0DFB1D8081918160E476E00E941B0112
:10146000892B39F0CC0CDD1CEE1CFF1C6894C0F8F5
:1014700011C0EA85FB85EA0DFB1D8081918160E347
:1014800072E00E941B01892B09F493CFCC0CDD1C68
:10149000EE1CFF1C0C5F1F4F0638110531F680E271
:1014A00090E099878887CC82DD82EE82FF82A4CF8C
:1014B000DF91CF911F910F91FF90EF90DF90CF9030
:1014C000BF90AF9008958F929F92AF92BF92CF92AC
:1014D000DF92EF92FF920F931F93CF93DF93EB0175
:1014E0008091A4018A3108F47AC0EA85FB85808165
:1014F00091818032934050F4198618868FEF9FEFC8
:10150000DC018C839D83AE83BF836FC08281938116
:101510006CEA7DE00E94D300892B09F460C0EA8563
:10152000FB85848195816CEA7DE00E94D300892B44
:1015300009F455C054E0A52EB12C03E010E0C12CF5
:10154000D12C76018091A40190E0A816B906E4F5AB
:10155000EA85FB85C801880F991FE80FF91F808174
:10156000918166EB73E00E941B01892B61F14501BB
:10157000880C991CEA85FB85E80DF91D8081918115
:1015800060E679E00E94D300892B39F0CC0CDD1C99
:10159000EE1CFF1C6894C0F810C0EA85FB85E80DBE
:1015A000F91D808191816CEB72E00E94D300892B40
:1015B000B1F0CC0CDD1CEE1CFF1C0E5F1F4F82E057
:1015C000A80EB11CBFCF85010150110915950795D3
:1015D000198708870C30110524F41986188680E0D5
:1015E00009C0CC82DD82EE82FF828BE090E099839D
:1015F000888381E0DF91CF911F910F91FF90EF9051
:10160000DF90CF90BF90AF909F908F9008958F9272
:101610009F92AF92BF92CF92DF92EF92FF920F9381
:101620001F93CF93DF93EB018091A4018A3108F4DB
:1016300071C0EA85FB8580819181843F914060F48F
:10164000198618868FEF9FEFDC018C839D83AE8314
:10165000BF838BE090E066C08281938160E679E091
:101660000E94D300892B09F455C073E0A72EB12C3A
:1016700002E010E0C12CD12C76018091A40190E011
:10168000A816B906E4F5EA85FB85C801880F991FFD
:10169000E80FF91F8081918168E572E00E941B01CB
:1016A000892B61F14501880C991CEA85FB85E80DC1
:1016B000F91D8081918160EB74E00E94D300892B39
:1016C00039F0CC0CDD1CEE1CFF1C6894C0F810C077
:1016D000EA85FB85E80DF91D8081918168E572E05E
:1016E0000E94D300892BB1F0CC0CDD1CEE1CFF1C3A
:1016F0000E5F1F4F82E0A80EB11CBFCF85010150C5
:10170000110915950795198708870C30110524F4E0
:101710001986188680E009C0CC82DD82EE82FF82C5
:1017200084E090E09983888381E0DF91CF911F91DD
:101730000F91FF90EF90DF90CF90BF90AF909F9070
:101740008F900895AF92BF92CF92DF92EF92FF9267
:101750000F931F93CF93DF93EB018091A401863405
:1017600010F480E086C0EA85FB85828193816EEE6D
:1017700072E00E94D300892BA1F3EA85FB85848166
:1017800095816EEE72E00E941B01892B51F3EA8570
:10179000FB858681978162E27BE00E94D300892BE2
:1017A00001F3EA85FB858085918562E27BE00E94FA
:1017B0001B01892BB1F25CE0A52EB12C05E010E0F5
:1017C000C12CD12C7601EA85FB85C801880F991FB1
:1017D000E80FF91F808191816EEE72E00E94D300C4
:1017E000892B09F4BECFEA85FB85EA0DFB1D8081BC
:1017F000918166E678E00E941B01892B39F0CC0CC0
:10180000DD1CEE1CFF1C6894C0F811C0EA85FB8546
:10181000EA0DFB1D808191816EEE72E00E941B013A
:10182000892B09F49ECFCC0CDD1CEE1CFF1C0E5F37
:101830001F4F84E0A80EB11C0534110521F6EA857E
:10184000FB85E657FF4F808191816EEE72E00E942A
:10185000D300892B09F485CF80E290E099878887AF
:10186000CC82DD82EE82FF8288E090E099838883DB
:1018700081E0DF91CF911F910F91FF90EF90DF906A
:10188000CF90BF90AF9008950F931F93CF93DF93A6
:10189000EC01662359F00E94CF0D69837A838B8314
:1018A0009C83DF91CF911F910F9108950E94CF0DDE
:1018B00009811A812B813C81601B710B820B930B78
:1018C000643671058105910530F763E070E080E0D2
:1018D00090E00E94FE0DEACF60E00C94440CFC0105
:1018E00013AA14AA15AA16AA1182128213821482AC
:1018F000411551056105710521F0CB01BA010C9428
:10190000FE0D0895FB01BA01A901DC01D296FC93FA
:10191000EE93D19726E0CF010C9405101F93CF933F
:10192000DF93EC01162F60E071E089A99AA90E946B
:101930004A114AE050E0612F89A99AA90E94C81172
:1019400067E071E089A99AA90E944A1162E370E0F8
:1019500080E090E0DF91CF911F910C94FE0D1F93DA
:10196000CF93DF93EC01162F8D81882389F189A90C
:101970009AA9DC01ED91FC910480F581E02D099597
:10198000892BA9F307C02637310519F12835310510
:1019900009F41D8289A99AA9DC01ED91FC910480CA
:1019A000F581E02D09951816190694F489A99AA9CC
:1019B000DC01ED91FC910680F781E02D09959C01F9
:1019C000332723363105F9F6612FCE010E948E0CA4
:1019D00083E6DF91CF911F9108950F931F93CF93CB
:1019E000DF931F92CDB7DEB78C01662349F081E00B
:1019F000F801858360E0C80149830E94AF0C4981EA
:101A0000F80145830F90DF91CF911F910F910895B9
:101A100040ED57E060E070E082E792E00E946F0CDA
:101A200020E835E240E050E063EC72E082E792E0CB
:101A30000E94820C82E792E00E946C0C68E571E0E3
:101A40008091A3029091A4020E944A116AE070E082
:101A500080E090E00E94FE0D41E060E082E792E0CD
:101A60000E94ED0C26E040E855E260E070E083EC77
:101A700092E00E94051061E08DE00E948A0E89EBE1
:101A800092E00C942202673C28E372072FEF820752
:101A9000910541F06F3F7F4F8F4F9F4F99F465E75E
:101AA00071E012C06AE671E083EC92E00E9450118E
:101AB0008DE00E94F90E61E0892B09F060E08DE075
:101AC0000C94C30E6CE771E083EC92E00C9450111F
:101AD00069EA72E089EB92E00E94EF02892B71F0D3
:101AE0006091AD027091AE028091AF029091B00210
:101AF0000E94430D89EB92E00C94390208956CE04A
:101B000070E089EB92E00C941D021F920F920FB6C9
:101B10000F9211242F933F938F939F93AF93BF9373
:101B20008091BB029091BC02A091BD02B091BE0217
:101B30003091BA0223E0230F2D3720F40196A11D26
:101B4000B11D05C026E8230F0296A11DB11D2093EB
:101B5000BA028093BB029093BC02A093BD02B093E3
:101B6000BE028091BF029091C002A091C102B091CB
:101B7000C2020196A11DB11D8093BF029093C002C5
:101B8000A093C102B093C202BF91AF919F918F9178
:101B90003F912F910F900FBE0F901F9018952FB768
:101BA000F8946091BB027091BC028091BD0290914B
:101BB000BE022FBF08953FB7F8948091BF02909165
:101BC000C002A091C102B091C20226B5A89B05C077
:101BD0002F3F19F00196A11DB11D3FBF6627782F39
:101BE000892F9A2F620F711D811D911D42E0660F92
:101BF000771F881F991F4A95D1F70895CF92DF92DA
:101C0000EF92FF92CF93DF936B017C010E94DB0D7B
:101C1000EB01C114D104E104F10489F00E94DF1149
:101C20000E94DB0D6C1B7D0B683E734090F381E0DE
:101C3000C81AD108E108F108C851DC4FEACFDF919A
:101C4000CF91FF90EF90DF90CF900895789484B576
:101C5000826084BD84B5816084BD85B5826085BDA8
:101C600085B5816085BDEEE6F0E08081816080838E
:101C7000E1E8F0E010828081826080838081816071
:101C80008083E0E8F0E0808181608083E1EBF0E038
:101C9000808184608083E0EBF0E0808181608083DC
:101CA000EAE7F0E0808184608083808182608083C5
:101CB0008081816080838081806880831092C100F0
:101CC0000895833081F028F4813099F08230A1F0BA
:101CD00008958730A9F08830B9F08430D1F480912C
:101CE00080008F7D03C0809180008F77809380007B
:101CF000089584B58F7702C084B58F7D84BD089523
:101D00008091B0008F7703C08091B0008F7D809369
:101D1000B0000895CF93DF9390E0FC01E458FF4FAB
:101D20002491FC01E057FF4F8491882349F190E012
:101D3000880F991FFC01E854FF4FA591B49182557B
:101D40009F4FFC01C591D4919FB7611108C0F894D1
:101D50008C91209582238C93888182230AC06230E3
:101D600051F4F8948C91322F309583238C93888191
:101D7000822B888304C0F8948C91822B8C939FBF14
:101D8000DF91CF9108950F931F93CF93DF931F920D
:101D9000CDB7DEB7282F30E0F901E859FF4F849125
:101DA000F901E458FF4F1491F901E057FF4F0491F6
:101DB0000023C9F0882321F069830E94610E6981A4
:101DC000E02FF0E0EE0FFF1FE255FF4FA591B49119
:101DD0009FB7F8948C91611103C01095812301C0C5
:101DE000812B8C939FBF0F90DF91CF911F910F910B
:101DF0000895CF93DF93282F30E0F901E859FF4F82
:101E00008491F901E458FF4FD491F901E057FF4F55
:101E1000C491CC2391F081110E94610EEC2FF0E06F
:101E2000EE0FFF1FEC55FF4FA591B4912C912D2380
:101E300081E090E021F480E002C080E090E0DF915A
:101E4000CF910895FC01818D228D90E0805C9F4FA1
:101E5000821B91098F7399270895FC01918D828DC2
:101E6000981731F0828DE80FF11D858D90E008956F
:101E70008FEF9FEF0895FC01918D828D981761F08F
:101E8000828DDF01A80FB11D5D968C91928D9F5FB1
:101E90009F73928F90E008958FEF9FEF08958FEBDF
:101EA00090E1892B49F080E090E0892B29F00E9495
:101EB000BF1081110C9400000895FC01848DDF0196
:101EC000A80FB11DA35ABF4F2C91848D90E00196AD
:101ED0008F739927848FA689B7892C93A089B1899C
:101EE0008C9180648C93938D848D981306C00288A6
:101EF000F389E02D80818F7D80830895CF93DF93D8
:101F0000EC01888D8823C9F0EA89FB89808185FDF1
:101F100005C0A889B9898C9186FD0FC00FB607FC52
:101F2000F5CF808185FFF2CFA889B9898C9185FF93
:101F3000EDCFCE010E945D0FE7CFDF91CF910895E5
:101F4000CF92DF92FF920F931F93CF93DF931F9255
:101F5000CDB7DEB76C0181E0D60158968C935897C7
:101F60005B969C915B975C968C915C97981307C0ED
:101F70005096ED91FC915197808185FD2EC0F60120
:101F8000038D10E00F5F1F4F0F731127F02EF60126
:101F9000848DF81211C00FB607FCF9CFD601509608
:101FA000ED91FC915197808185FFF1CFC601698346
:101FB0000E945D0F6981EBCF838DE80FF11DE35A1D
:101FC000FF4F6083D6015B960C935B975296ED9121
:101FD000FC915397808180620CC0D6015696ED919A
:101FE000FC91579760835096ED91FC9151978081B9
:101FF0008064808381E090E00F90DF91CF911F910A
:102000000F91FF90DF90CF900895BF92CF92DF9213
:10201000EF92FF92CF93DF93EC016A017B01B22E26
:10202000E889F98982E08083411581EE58076105CE
:102030007105A1F060E079E08DE390E0A7019601E1
:102040000E940714215031094109510956954795BD
:1020500037952795211580E1380798F0E889F989A7
:10206000108260E874E88EE190E0A70196010E947A
:102070000714215031094109510956954795379563
:102080002795EC85FD853083EE85FF852083188EAE
:10209000EC89FD89B082EA89FB8980818061808337
:1020A000EA89FB89808188608083EA89FB89808155
:1020B00080688083EA89FB8980818F7D8083DF91BE
:1020C000CF91FF90EF90DF90CF90BF9008951F9237
:1020D0000F920FB60F9211242F938F939F93EF932C
:1020E000FF93E091D302F091D4028081E091D90274
:1020F000F091DA0282FD12C090818091DC028F5F44
:102100008F732091DD02821751F0E091DC02F0E044
:10211000ED53FD4F958F8093DC0201C08081FF91CC
:10212000EF919F918F912F910F900FBE0F901F9065
:1021300018951F920F920FB60F9211242F933F9371
:102140004F935F936F937F938F939F93AF93BF93BF
:10215000EF93FF9383EC92E00E945D0FFF91EF916C
:10216000BF91AF919F918F917F916F915F914F91AF
:102170003F912F910F900FBE0F901F90189583ECF9
:1021800092E00E94220F21E0892B09F420E0822FA7
:1021900008951092C6021092C50288EE93E0A0E066
:1021A000B0E08093C7029093C802A093C902B09395
:1021B000CA0286E891E09093C4028093C30285EC42
:1021C00090E09093D0028093CF0284EC90E09093C3
:1021D000D2028093D10280EC90E09093D40280935D
:1021E000D30281EC90E09093D6028093D50282ECEA
:1021F00090E09093D8028093D70286EC90E0909381
:10220000DA028093D9021092DC021092DD02109261
:10221000DE021092DF020895CF92DF92EF92FF92DA
:102220000F931F93CF93DF937C016A01EB0100E0D2
:1022300010E00C151D0571F06991D701ED91FC912D
:102240000190F081E02DC7010995892B19F00F5FEE
:102250001F4FEFCFC801DF91CF911F910F91FF90DA
:10226000EF90DF90CF9008956115710581F0DB014B
:102270000D900020E9F7AD0141505109461B570B65
:10228000DC01ED91FC910280F381E02D099480E066
:1022900090E008950C9434116DE071E00C943411C9
:1022A0000F931F93CF93DF93EC010E9434118C01A5
:1022B000CE010E944C11800F911FDF91CF911F9191
:1022C0000F9108958F929F92AF92BF92CF92DF921B
:1022D000EF92FF920F931F93CF93DF93CDB7DEB7AB
:1022E000A1970FB6F894DEBF0FBECDBF7C01C42E00
:1022F000E52FCB01D22E19A221E02D1510F02AE0F6
:10230000D22E8E010F5D1F4F8D2C912CA12CB12C44
:102310006C2D7E2FA50194010E9407148C2DD29E56
:1023200080191124015011098A3014F4805D01C014
:10233000895CF8018083211531054105510521F0A3
:10234000C22EE32FCA01E4CFB801C7010E943411A5
:10235000A1960FB6F894DEBF0FBECDBFDF91CF912F
:102360001F910F91FF90EF90DF90CF90BF90AF90B3
:102370009F908F9008952115310541F4DC01ED9176
:10238000FC910190F081E02D642F09940C9462116E
:102390009A01462F50E060E070E00C94BB11089564
:1023A0000E94260E0E94CF110E94080DCFE4DFE0AC
:1023B0000E94680D2097E1F30E944F0FF9CF089516
:1023C0005058BB27AA270ED075C166D130F06BD10B
:1023D00020F031F49F3F11F41EF45BC10EF4E09540
:1023E000E7FB51C1E92F77D180F3BA176207730772
:1023F0008407950718F071F49EF58FC10EF4E095EF
:102400000B2EBA2FA02D0B01B90190010C01CA01AE
:10241000A0011124FF27591B99F0593F50F4503E59
:1024200068F11A16F040A22F232F342F4427585F4B
:10243000F3CF469537952795A795F0405395C9F763
:102440007EF41F16BA0B620B730B840BBAF091501B
:10245000A1F0FF0FBB1F661F771F881FC2F70EC0BA
:10246000BA0F621F731F841F48F48795779567958D
:10247000B795F7959E3F08F0B3CF9395880F08F076
:102480009927EE0F979587950895D9D008F481E0A4
:1024900008950CD00FC107D140F0FED030F021F4E8
:1024A0005F3F19F0F0C0511139C1F3C014D198F356
:1024B0009923C9F35523B1F3951B550BBB27AA27C5
:1024C00062177307840738F09F5F5F4F220F331F37
:1024D000441FAA1FA9F333D00E2E3AF0E0E830D003
:1024E00091505040E695001CCAF729D0FE2F27D006
:1024F000660F771F881FBB1F261737074807AB07D4
:10250000B0E809F0BB0B802DBF01FF2793585F4F48
:102510002AF09E3F510568F0B6C000C15F3FECF362
:10252000983EDCF3869577956795B795F7959F5F0D
:10253000C9F7880F911D9695879597F90895E1E061
:10254000660F771F881FBB1F621773078407BA07C0
:1025500020F0621B730B840BBA0BEE1F88F7E0951B
:10256000089504D06894B111D9C00895BCD088F002
:102570009F5790F0B92F9927B751A0F0D1F0660F6F
:10258000771F881F991F1AF0BA95C9F712C0B1308A
:1025900081F0C3D0B1E00895C0C0672F782F88279D
:1025A000B85F39F0B93FCCF3869577956795B395C9
:1025B000D9F73EF490958095709561957F4F8F4F38
:1025C0009F4F0895E89409C097FB3EF4909580953D
:1025D000709561957F4F8F4F9F4F9923A9F0F92FE9
:1025E00096E9BB279395F695879577956795B79567
:1025F000F111F8CFFAF4BB0F11F460FF1BC06F5F4D
:102600007F4F8F4F9F4F16C0882311F096E911C05E
:10261000772321F09EE8872F762F05C0662371F07F
:1026200096E8862F70E060E02AF09A95660F771F93
:10263000881FDAF7880F9695879597F90895990F6F
:102640000008550FAA0BE0E8FEEF16161706E8077C
:10265000F907C0F012161306E407F50798F0621B9D
:10266000730B840B950B39F40A2661F0232B242B72
:10267000252B21F408950A2609F4A140A6958FEF91
:10268000811D811D089597F99F6780E870E060E0E3
:1026900008959FEF80EC089500240A9416161706FB
:1026A00018060906089500240A9412161306140643
:1026B00005060895092E0394000C11F4882352F0A6
:1026C000BB0F40F4BF2B11F460FF04C06F5F7F4F5E
:1026D0008F4F9F4F089557FD9058440F551F59F045
:1026E0005F3F71F04795880F97FB991F61F09F3FFF
:1026F00079F087950895121613061406551FF2CF28
:102700004695F1DF08C0161617061806991FF1CF77
:1027100086957105610508940895E894BB2766279E
:102720007727CB0197F908950BD0C4CFB5DF28F0F8
:10273000BADF18F0952309F0A6CFABCF1124EECF66
:10274000CADFA0F3959FD1F3950F50E0551F629F0C
:10275000F001729FBB27F00DB11D639FAA27F00DFA
:10276000B11DAA1F649F6627B00DA11D661F829F21
:102770002227B00DA11D621F739FB00DA11D621F06
:10278000839FA00D611D221F749F3327A00D611D23
:10279000231F849F600D211D822F762F6A2F112405
:1027A0009F5750408AF0E1F088234AF0EE0FFF1F58
:1027B000BB1F661F771F881F91505040A9F79E3F8F
:1027C000510570F060CFAACF5F3FECF3983EDCF389
:1027D000869577956795B795F795E7959F5FC1F7CC
:1027E000FE2B880F911D9695879597F90895DB012B
:1027F0008F939F930E942914BF91AF91A29F800D48
:10280000911DA39F900DB29F900D11240895A1E2F8
:102810001A2EAA1BBB1BFD010DC0AA1FBB1FEE1F5A
:10282000FF1FA217B307E407F50720F0A21BB30BA5
:10283000E40BF50B661F771F881F991F1A9469F721
:1028400060957095809590959B01AC01BD01CF017D
:1028500008950E947114A59F900DB49F900DA49FA0
:10286000800D911D112408950F93083090F0982F3A
:10287000872F762F652F542F432F322F2227085072
:10288000F4CF220F331F441F551F661F771F881F69
:10289000991F0A95B2F70F91089597FB10F81694B7
:1028A00000080F93083098F00850232F342F452F3D
:1028B000562F672F782F892F902DF4CF0594979559
:1028C00087957795679557954795379527950A95F5
:1028D000AAF70F910895EE0FFF1F0590F491E02DD8
:1028E0000994A29FB001B39FC001A39F700D811DE9
:1028F0001124911DB29F700D811D1124911D089509
:04290000F894FFCF79
:10290400564D4450435F005F564D4450430D0A00FA
:102914004572726F723A20417474656D70742074DC
:102924006F20736574206120726561642D6F6E6C15
:1029340079207661726961626C65206F72206461CE
:1029440074612074797065206E6F74207375707073
:102954006F727465640D0A00564D4450565F317CA5
:10296400315F564D4450560D0A00546F67676C65CD
:10297400204C454400526570656174004F7468656D
:10298400720000000000A00F0C11220F3B0F2D0F4E
:102994007E0F6E616E00696E66006F7666002E00B3
:00000001FF
