:100000000C9463000C948B000C948B000C948B006C
:100010000C948B000C948B000C948B000C9463015B
:100020000C948B000C948B000C948B000C948B0024
:100030000C948B000C948B000C948B000C948B0014
:100040000C94A50E0C948B000C9487110C94B91190
:100050000C948B000C948B000C948B000C948B00F4
:100060000C948B000C948B0000000008000201002F
:100070000003040700000000000000000102040863
:100080001020408001020408102001020408102002
:10009000040404040404040402020202020203032E
:1000A00003030303000000002300260029000000D2
:1000B0000000250028002B0000000000240027007D
:1000C0002A009F0EE91111241FBECFEFD8E0DEBF3A
:1000D000CDBF12E0A0E0B1E0E6EFFBE202C0059088
:1000E0000D92AA32B107D9F723E0AAE2B2E001C02B
:1000F0001D92AA3FB207E1F710E0C6ECD0E004C0C1
:100100002297FE010E94E615C23CD107C9F70E9462
:1001100049130C94F9150C940000CF92DF92EF92E2
:10012000FF92CF93DF93EC01882777FD8095982F7E
:100130000E945D146B017C0120E030E040E45FE34D
:100140000E940D1520E030E048E452E40E94C21302
:100150000E942A14C617D707ECF020E030E040EAEE
:100160005FE3C701B6010E940D1520E030E048E4CE
:1001700052E40E94C21320E030E040E85FE30E94B6
:100180005A130E942A1421E06C177D070CF420E01A
:10019000822F01C080E090E0DF91CF91FF90EF903F
:1001A000DF90CF900895CF92DF92EF92FF92CF939E
:1001B000DF93EC016C597F4F882777FD8095982F4E
:1001C0000E945D146B017C0120E030E040E45FE3BD
:1001D0000E940D1520E030E048E452E40E94C21372
:1001E0000E942A14C617D707ECF020E030E040EA5E
:1001F0005FE3C701B6010E940D1520E030E048E43E
:1002000052E40E94C21320E030E040E85FE30E9425
:100210005A130E942A1421E06C177D070CF420E089
:10022000822F01C080E090E0DF91CF91FF90EF90AE
:10023000DF90CF900895CF92DF92EF92FF92CF930D
:10024000DF93EC0164567109882777FD8095982F1C
:100250000E945D146B017C0120E030E040E45FE32C
:100260000E940D1520E030E048E452E40E94C213E1
:100270000E942A14C617D707ECF020E030E040EACD
:100280005FE3C701B6010E940D1520E030E048E4AD
:1002900052E40E94C21320E030E040E85FE30E9495
:1002A0005A130E942A1421E06C177D070CF420E0F9
:1002B000822F01C080E090E0DF91CF91FF90EF901E
:1002C000DF90CF9008951F920F920FB60F921124D6
:1002D0002F933F934F935F936F937F938F939F934E
:1002E000AF93BF93EF93FF9380912B020E9419105D
:1002F00020912F02309130022F5F3F4F3093300218
:1003000020932F0290912E02953618F096E090934C
:100310002A0290912A029430C9F128F4923069F0AF
:100320009330D1F05EC0953009F451C0963009F099
:1003300058C091E09093FB0251C0811152C02091AE
:100340002F02309130022436310508F442C0109259
:10035000FB0210922E021CC0813009F042C0E091D5
:100360002E0291E09E0F90932E02F0E020912F023A
:1003700030913002EE0FFF1FE65DFD4F308727837F
:100380001092300210922F0294E029C0811117C000
:10039000E0912E0291E09E0F90932E02F0E02091CA
:1003A0002F0230913002EE0FFF1FE65DFD4F3087C8
:1003B00027831092300210922F0293E010C02091F8
:1003C0002F02309130022536310558F007C08111D7
:1003D00008C01092300210922F0203C095E0909353
:1003E0002A0290912D029923B9F081110AC08091BF
:1003F0002C02882321F080912C0261E009C02D9A03
:100400000BC080912C02882331F080912C0260E097
:100410000E94E30F01C02D98FF91EF91BF91AF9122
:100420009F918F917F916F915F914F913F912F910C
:100430000F900FBE0F901F90189560932B02109293
:100440002D020895F89482E08093B0008093B1006B
:1004500094E69093B3001092B20080937000789469
:1004600080932A0210922E0280912B0260E00C945D
:10047000AA0F82E080932A0210922E0208958F9292
:100480009F92AF92BF92CF92DF92EF92FF927B0149
:10049000BA0180E090E00E945B144B015C01B7015F
:1004A00080E090E00E945B146B017C012DEC3CEC41
:1004B0004CE45FE30E940D159B01AC01C501B40142
:1004C0000E94BE1387FD17C02DEC3CEC4CE45FE3AB
:1004D000C501B4010E940D159B01AC01C701B60115
:1004E0000E94BE13992787FD90958827990F881F32
:1004F0009927019602C080E090E0FF90EF90DF9096
:10050000CF90BF90AF909F908F9008958F929F92C1
:10051000AF92BF92CF92DF92EF92FF920F931F9311
:10052000CF93DF936C01EB01EC84FD8486E0E81649
:10053000F1040CF444C0EE0CFF1C06E010E045ECA6
:10054000842E4DE9942E4CE1A42E41E8B42E8A85E8
:100550009B85FC01E00FF11F40815181F801349728
:10056000E80FF91F60817181C6010E943F02FC0102
:10057000A501940163E971E080E091E00E947015AB
:100580004F01AA2497FCA094BA2C86269726A82669
:10059000B9260E5F1F4F0E151F05C9F68C829D826E
:1005A000AE82BF8280E290E0998788878FEF9FEFCD
:1005B0009983888361E070E080E090E003C060E0B0
:1005C00070E0CB01DF91CF911F910F91FF90EF90E1
:1005D000DF90CF90BF90AF909F908F9008950F9332
:1005E0001F93CF93DF938C01EB0181E392E09B8714
:1005F0008A8780912E0290E09D878C878091FB02F4
:1006000090E09F878E8780912A02853009F05EC036
:10061000C8010E944E06882319F081E090E058C07E
:10062000BE01C8010E94070B8111F7CFBE01C801AE
:100630000E94630A8111F1CFBE01C8010E94BF056B
:100640008111EBCFBE01C8010E9425088111E5CFC1
:10065000BE01C8010E94CC088111DFCFBE01C801D4
:100660000E94ED068111D9CFBE01C8010E9432055A
:100670008111D3CFBE01C8010E9479048111CDCF71
:10068000BE01C8010E94C4098111C7CFBE01C801C3
:100690000E94A20B8111C1CFBE01C8010E946D034F
:1006A0008111BBCFBE01C8010E94FE038111B5CFED
:1006B000BE01C8010E948602672B682B692B09F0D6
:1006C000ACCF82E080932A0210922E0280E090E06C
:1006D000DF91CF911F910F910895AF92BF92CF926A
:1006E000DF92EF92FF920F931F93CF93DF93EB0173
:1006F00080912E02883510F480E075C0EA85FB8574
:100700008281938160E672E20E94D300892BA1F37B
:10071000EA85FB858481958164E971E10E941B0172
:10072000892B51F3BEE1CB2ED12C1DE1E12EF12C12
:1007300000E010E080912E0290E00497E816F906A0
:10074000C4F5EA85FB85C701880F991FE80FF91FDB
:100750008081918164EF71E00E94D300892B61F266
:100760005601AA0CBB1CEA85FB85EA0DFB1D8081A6
:10077000918168E572E00E941B01892B21F0000F36
:10078000111F01600EC0EA85FB85EA0DFB1D80810B
:10079000918164EA76E00E941B01892B49F0000FE9
:1007A000111F82E0E80EF11C82E0C80ED11CC2CFFE
:1007B000760181E0E81AF108F594E794F986E88675
:1007C0008AE2E816F1040CF497CFC801AA2797FD36
:1007D000A095BA2F8C839D83AE83BF8389E090E080
:1007E0009983888381E0DF91CF911F910F91FF90D2
:1007F000EF90DF90CF90BF90AF900895AF92BF92EF
:10080000CF92DF92EF92FF920F931F93CF93DF93DC
:10081000EB0180912E02803211F080E05FC0EA850A
:10082000FB85828193816CE271E00E94D300892B69
:10083000A1F3EA85FB85848195816EEE72E00E94CA
:100840001B01892B51F306E010E0C12CD12C76015D
:10085000EA85FB85E00FF11F808191816CE271E0F8
:100860000E94D300892BC9F2580182E0A80EB11C66
:10087000EA85FB85EA0DFB1D8081918168E077E0C8
:100880000E941B01892B39F0CC0CDD1CEE1CFF1CD7
:100890006894C0F811C0EA85FB85EA0DFB1D8081D4
:1008A00091816EEE72E00E941B01892B09F4B5CF95
:1008B000CC0CDD1CEE1CFF1C0C5F1F4F0E33110512
:1008C00039F68EE090E099878887CC82DD82EE82CF
:1008D000FF828FE090E09983888381E0DF91CF9160
:1008E0001F910F91FF90EF90DF90CF90BF90AF904E
:1008F0000895AF92BF92CF92DF92EF92FF920F9343
:100900001F93CF93DF93EB0180912E02823261F52A
:10091000EA85FB858281938168E572E00E94D300BD
:10092000892B11F180912E0290E081509048880F20
:10093000991FEA85FB85E80FF91F8081918168E5A1
:1009400072E00E94D300892B79F0198618868FEF08
:100950009FEFDC018C839D83AE83BF8386E090E0B4
:100960009983888381E073C0EA85FB8582819381C6
:1009700060E47FE10E94D300892B21F080912E0258
:10098000813210F480E063C0EA85FB858481958123
:1009900060EA7FE00E941B01892BA1F358E0A52E9D
:1009A000B12C03E010E0C12CD12C7601EA85FB8547
:1009B000C801880F991FE80FF91F8081918168E5B0
:1009C00072E00E94D300892BE9F2EA85FB85EA0DEB
:1009D000FB1D8081918160E476E00E941B01892BE0
:1009E00039F0CC0CDD1CEE1CFF1C6894C0F811C063
:1009F000EA85FB85EA0DFB1D8081918166E272E04C
:100A00000E941B01892B09F4BDCFCC0CDD1CEE1C10
:100A1000FF1C0E5F1F4F84E0A80EB11C03321105AE
:100A200029F6EA85FB85EA5BFF4F8081918168E5C5
:100A300072E00E94D300892B09F4A4CF80E190E0FA
:100A400099878887CC82DD82EE82FF8287CFDF9113
:100A5000CF911F910F91FF90EF90DF90CF90BF90BB
:100A6000AF900895AF92BF92CF92DF92EF92FF9234
:100A70000F931F93CF93DF93EB0180912E02893365
:100A800010F480E071C0EA85FB858281938160E487
:100A90007FE10E94D300892BA1F3EA85FB85848145
:100AA000958160EA7FE00E941B01892B51F338E0B9
:100AB000A32EB12C03E010E0C12CD12C7601EA85E5
:100AC000FB85C801880F991FE80FF91F808191816C
:100AD00068E572E00E94D300892B99F2EA85FB85D4
:100AE000EA0DFB1D8081918160E476E00E941B018C
:100AF000892B39F0CC0CDD1CEE1CFF1C6894C0F86F
:100B000011C0EA85FB85EA0DFB1D8081918166E2BB
:100B100072E00E941B01892B09F4B3CFCC0CDD1CC1
:100B2000EE1CFF1C0E5F1F4F84E0A80EB11C0B33A0
:100B3000110529F6EA85FB85EA58FF4F80819181EE
:100B400068E572E00E94D300892B09F49ACF8CE10A
:100B500090E099878887CC82DD82EE82FF828AE0EE
:100B600090E09983888381E0DF91CF911F910F916D
:100B7000FF90EF90DF90CF90BF90AF9008956F926D
:100B80007F928F929F92AF92BF92CF92DF92EF921D
:100B9000FF920F931F93CF93DF93EB0180912E026F
:100BA000823208F461C0EA85FB85828193816EE51B
:100BB00071E00E94D300892B09F456C063E0A62E91
:100BC000B12C02E010E0C12CD12C760135018091CE
:100BD0002E0290E0A816B906E4F54801880C991C8D
:100BE000EA85FB85E80DF91D808191816EE977E04A
:100BF0000E94D300892B39F0CC0CDD1CEE1CFF1CAD
:100C00006894C0F810C0EA85FB85E80DF91D808165
:100C100091816EEE72E00E94D300892B29F1CC0CF9
:100C2000DD1CEE1CFF1CC501880F991FEA85FB85A2
:100C3000E80FF91F808191816EE571E00E941B0130
:100C400022E0A20EB11C892B19F00E5F1F4FBECF00
:100C500083010150110915950795198708870031FF
:100C6000110524F41986188680E009C0CC82DD8243
:100C7000EE82FF828CE090E09983888381E0DF91AF
:100C8000CF911F910F91FF90EF90DF90CF90BF9089
:100C9000AF909F908F907F906F900895AF92BF928A
:100CA000CF92DF92EF92FF920F931F93CF93DF9338
:100CB000EB01EA85FB858281938168E273E20E9401
:100CC000D300892B11F480E07DC080912E02843006
:100CD00019F5EA85FB85848195816AEC78E00E94AC
:100CE0001B01892BC9F0EA85FB858681978160E32A
:100CF00072E00E94D300892B79F0198618868FEF55
:100D00009FEFDC018C839D83AE83BF8383E090E003
:100D10009983888381E056C080912E02843498F2B2
:100D2000EA85FB858481958164E971E10E941B015C
:100D3000892B49F206E010E0C12CD12C7601EA851E
:100D4000FB85E00FF11F8081918160E372E00E94DA
:100D5000D300892B09F4B7CF580182E0A80EB11C4B
:100D6000EA85FB85EA0DFB1D808191816AE976E0C9
:100D70000E941B01892B39F0CC0CDD1CEE1CFF1CE2
:100D80006894C0F811C0EA85FB85EA0DFB1D8081DF
:100D9000918160E372E00E941B01892B09F493CFDB
:100DA000CC0CDD1CEE1CFF1C0C5F1F4F0638110520
:100DB00031F680E290E099878887CC82DD82EE82EE
:100DC000FF82A4CFDF91CF911F910F91FF90EF9001
:100DD000DF90CF90BF90AF9008958F929F92AF9287
:100DE000BF92CF92DF92EF92FF920F931F93CF9318
:100DF000DF9300D000D0CDB7DEB74B01DB011A96F0
:100E0000ED91FC911B97828193816EEA7DE00E94B7
:100E1000D300892B11F480E093C0D4011A96ED9190
:100E2000FC911B978481958166ED76E00E94D3004A
:100E3000892B89F3E6E0EE2EF12C20E030E040E053
:100E400050E0A12CB12CC12CD12CD4011A96ED91DB
:100E5000FC911B97EE0DFF1D8081918166EF71E083
:100E600029833A834B835C830E94D300892B99F2B8
:100E700087010E5F1F4FD4011A96ED91FC911B97CD
:100E8000E00FF11F808191816CED74E00E941B01E5
:100E900029813A814B815C81892B39F0B501C601EA
:100EA00001E00E94AD1521601DC0D4011A96ED919C
:100EB000FC911B97E00FF11F8081918160E971E047
:100EC00029833A834B835C830E941B0129813A81E9
:100ED0004B815C81892B09F49ECFB501C60101E0ED
:100EE0000E94AD155B016C01B4E0EB0EF11CE6EC69
:100EF000EE16F10409F0A9CFD40114962C9314979F
:100F000015963C93159716964C93169717965C93E7
:100F10001797B501C60100E20E94C81512962C93DE
:100F2000129713963C93139785E090E011969C934B
:100F30008E9380E390E019969C938E93189781E0AE
:100F40000F900F900F900F90DF91CF911F910F9105
:100F5000FF90EF90DF90CF90BF90AF909F908F90D9
:100F600008958F929F92AF92BF92CF92DF92EF92AD
:100F7000FF920F931F93CF93DF937A016901DA01F8
:100F8000CD91DC91FB0184859585C817D9070CF0BC
:100F90004AC0CE01880F991F0284F385E02DE80F27
:100FA000F91FA080B180C170DD27F1E0CF27209725
:100FB00019F484E690E002C08CE99FEF4801880EA6
:100FC000991EB401C5010E948D00892B99F4800EF1
:100FD000911EB401C5010E948D00892B71F4B401EA
:100FE000600F711FC5010E948D00892BF9F023E06D
:100FF00030E005C021E030E002C022E030E0D60160
:101000008D919C91119701968217930744F0F601F8
:1010100011821082D7018D919C91119701968D9329
:101020009C93CE0105C081E090E002C08FEF9FEF5E
:10103000DF91CF911F910F91FF90EF90DF90CF90B4
:10104000BF90AF909F908F9008954F925F926F9254
:101050007F928F929F92AF92BF92CF92DF92EF9248
:10106000FF920F931F93CF93DF9300D000D0CDB7A3
:10107000DEB76C017B011C821B8281E090E09A83C9
:10108000898380912E028D3010F480E070C009E7D2
:1010900013E09E012D5F3F4FAE014F5F5F4FC601D2
:1010A0000E94B107892B89F79E012D5F3F4FAE014A
:1010B0004F5F5F4FB701C6010E94B107019729F743
:1010C0009E012D5F3F4FAE014F5F5F4FB701C601DD
:1010D0000E94B107892BC9F6412C512C3201A12C59
:1010E000B12C80912E0290E029813A81281739078E
:1010F0009CF509E713E09E012D5F3F4FAE014F5F66
:101100005F4FB701C6010E94B1074C019E012D5FE0
:101110003F4FAE014F5F5F4FB701C6010E94B1075D
:1011200021E08216910451F4892B09F0AECF440CD2
:10113000551C661C771C689440F80AC0892809F081
:10114000A4CF019709F0A1CF440C551C661C771C55
:101150008FEFA81AB80AC5CFF701B186A0864482DE
:1011600055826682778281E090E0918380830F9040
:101170000F900F900F90DF91CF911F910F91FF90E3
:10118000EF90DF90CF90BF90AF909F908F907F9027
:101190006F905F904F9008952F923F924F925F9281
:1011A0006F927F928F929F92AF92BF92CF92DF9277
:1011B000EF92FF920F931F93CF93DF9300D000D055
:1011C000CDB7DEB76C017B011C821B82DB011C9654
:1011D0008D919C911D971816190614F080E0BDC0E2
:1011E000DB011A96ED91FC911B9782E090E09A83C7
:1011F0008983828193816AE67AE00E94D300892BF9
:1012000069F3D7011A96ED91FC911B9789819A8118
:101210009C012F5F3F4F3A832983880F991FE80F66
:10122000F91F8081918169E773E00E941B01892B7E
:10123000A9F20CEB11E09E012D5F3F4FAE014F5F15
:101240005F4FB701C6010E94B107892B39F69E0195
:101250002D5F3F4FAE014F5F5F4FB701C6010E9448
:10126000B107019709F0BACF212C312C2101A12C13
:10127000B12C29813A81F701848595852817390792
:101280000CF060C00CEB11E09E012D5F3F4FAE01F2
:101290004F5F5F4FB701C6010E94B1073C01B3E049
:1012A000AB16B10491F00CEB11E09E012D5F3F4FA6
:1012B000AE014F5F5F4FB701C6010E94B1074C01FD
:1012C000E3E0AE16B10409F510C00CEB11E09E018D
:1012D0002D5F3F4FAE014F5F5F4FB701C6010E94C8
:1012E000B10768167906F9F279CF0CEB11E09E018F
:1012F0002D5F3F4FAE014F5F5F4FB701C6010E94A8
:10130000B1078816990609F069CF6114710459F480
:101310008A94892809F062CF220C331C441C551C86
:10132000689420F80BC06A94672809F057CF892881
:1013300009F054CF220C331C441C551CAFEFAA1AE1
:10134000BA0A97CFB186A086248235824682578218
:1013500082E090E09183808381E00F900F900F9066
:101360000F90DF91CF911F910F91FF90EF90DF9041
:10137000CF90BF90AF909F908F907F906F905F9035
:101380004F903F902F900895AF92BF92CF92DF92EF
:10139000EF92FF920F931F93CF93DF93EB01EA85B8
:1013A000FB858281938168E873E10E94D300892BD9
:1013B00011F480E07DC080912E02843019F5EA8519
:1013C000FB85848195816AEC78E00E941B01892B62
:1013D000C9F0EA85FB858681978160E372E00E940F
:1013E000D300892B79F0198618868FEF9FEFDC01E7
:1013F0008C839D83AE83BF8387E090E0998388834D
:1014000081E056C080912E02843498F2EA85FB85F3
:101410008481958168E873E10E941B01892B49F260
:1014200006E010E0C12CD12C7601EA85FB85E00FA7
:10143000F11F8081918160E372E00E94D300892BCB
:1014400009F4B7CF580182E0A80EB11CEA85FB85EC
:10145000EA0DFB1D8081918160E476E00E941B0112
:10146000892B39F0CC0CDD1CEE1CFF1C6894C0F8F5
:1014700011C0EA85FB85EA0DFB1D8081918160E347
:1014800072E00E941B01892B09F493CFCC0CDD1C68
:10149000EE1CFF1C0C5F1F4F0638110531F680E271
:1014A00090E099878887CC82DD82EE82FF82A4CF8C
:1014B000DF91CF911F910F91FF90EF90DF90CF9030
:1014C000BF90AF9008958F929F92AF92BF92CF92AC
:1014D000DF92EF92FF920F931F93CF93DF93EB0175
:1014E00080912E028A3108F47AC0EA85FB858081DA
:1014F00091818032934050F4198618868FEF9FEFC8
:10150000DC018C839D83AE83BF836FC08281938116
:101510006CEA7DE00E94D300892B09F460C0EA8563
:10152000FB85848195816CEA7DE00E94D300892B44
:1015300009F455C054E0A52EB12C03E010E0C12CF5
:10154000D12C760180912E0290E0A816B906E4F520
:10155000EA85FB85C801880F991FE80FF91F808174
:10156000918166EB73E00E941B01892B61F14501BB
:10157000880C991CEA85FB85E80DF91D8081918115
:1015800060E679E00E94D300892B39F0CC0CDD1C99
:10159000EE1CFF1C6894C0F810C0EA85FB85E80DBE
:1015A000F91D808191816CEB72E00E94D300892B40
:1015B000B1F0CC0CDD1CEE1CFF1C0E5F1F4F82E057
:1015C000A80EB11CBFCF85010150110915950795D3
:1015D000198708870C30110524F41986188680E0D5
:1015E00009C0CC82DD82EE82FF828BE090E099839D
:1015F000888381E0DF91CF911F910F91FF90EF9051
:10160000DF90CF90BF90AF909F908F9008958F9272
:101610009F92AF92BF92CF92DF92EF92FF920F9381
:101620001F93CF93DF93EB0180912E028A3108F450
:1016300071C0EA85FB8580819181843F914060F48F
:10164000198618868FEF9FEFDC018C839D83AE8314
:10165000BF838BE090E066C08281938160E679E091
:101660000E94D300892B09F455C073E0A72EB12C3A
:1016700002E010E0C12CD12C760180912E0290E086
:10168000A816B906E4F5EA85FB85C801880F991FFD
:10169000E80FF91F8081918168E572E00E941B01CB
:1016A000892B61F14501880C991CEA85FB85E80DC1
:1016B000F91D8081918160EB74E00E94D300892B39
:1016C00039F0CC0CDD1CEE1CFF1C6894C0F810C077
:1016D000EA85FB85E80DF91D8081918168E572E05E
:1016E0000E94D300892BB1F0CC0CDD1CEE1CFF1C3A
:1016F0000E5F1F4F82E0A80EB11CBFCF85010150C5
:10170000110915950795198708870C30110524F4E0
:101710001986188680E009C0CC82DD82EE82FF82C5
:1017200084E090E09983888381E0DF91CF911F91DD
:101730000F91FF90EF90DF90CF90BF90AF909F9070
:101740008F900895AF92BF92CF92DF92EF92FF9267
:101750000F931F93CF93DF93EB0180912E0286347A
:1017600010F480E086C0EA85FB85828193816EEE6D
:1017700072E00E94D300892BA1F3EA85FB85848166
:1017800095816EEE72E00E941B01892B51F3EA8570
:10179000FB858681978162E27BE00E94D300892BE2
:1017A00001F3EA85FB858085918562E27BE00E94FA
:1017B0001B01892BB1F25CE0A52EB12C05E010E0F5
:1017C000C12CD12C7601EA85FB85C801880F991FB1
:1017D000E80FF91F808191816EEE72E00E94D300C4
:1017E000892B09F4BECFEA85FB85EA0DFB1D8081BC
:1017F000918166E678E00E941B01892B39F0CC0CC0
:10180000DD1CEE1CFF1C6894C0F811C0EA85FB8546
:10181000EA0DFB1D808191816EEE72E00E941B013A
:10182000892B09F49ECFCC0CDD1CEE1CFF1C0E5F37
:101830001F4F84E0A80EB11C0534110521F6EA857E
:10184000FB85E657FF4F808191816EEE72E00E942A
:10185000D300892B09F485CF80E290E099878887AF
:10186000CC82DD82EE82FF8288E090E099838883DB
:1018700081E0DF91CF911F910F91FF90EF90DF906A
:10188000CF90BF90AF9008950C94EF0E0F931F93DD
:10189000CF93DF93EC01662359F00E94EF0E69832A
:1018A0007A838B839C83DF91CF911F910F91089551
:1018B0000E94EF0E09811A812B813C81601B710B04
:1018C000820B930B643671058105910530F763E057
:1018D00070E080E090E00E941E0FEACF60E00C9480
:1018E000460CFC0113AA14AA15AA16AA1182128288
:1018F00013821482411551056105710521F0CB0158
:10190000BA010C941E0F0895FB01BA01A901DC0174
:10191000D296FC93EE93D19726E0CF010C9425113B
:101920001F93CF93DF93EC01162F60E071E089A93C
:101930009AA90E946A124AE050E0612F89A99AA9E7
:101940000E94411367E071E089A99AA90E946A1276
:1019500062E370E080E090E0DF91CF911F910C9402
:101960001E0F1F93CF93DF93EC01162F8D818823D9
:1019700089F189A99AA9DC01ED91FC910480F58196
:10198000E02D0995892BA9F307C02637310519F1F8
:101990002835310509F41D8289A99AA9DC01ED9148
:1019A000FC910480F581E02D09951816190694F430
:1019B00089A99AA9DC01ED91FC910680F781E02DBF
:1019C00009959C01332723363105F9F6612FCE01A5
:1019D0000E94900C83E6DF91CF911F9108950F93A1
:1019E0001F93CF93DF931F92CDB7DEB78C01662391
:1019F00049F081E0F801858360E0C80149830E94D5
:101A0000B10C4981F80145830F90DF91CF911F916F
:101A10000F91089540ED57E060E070E08CEF92E0A8
:101A20000E94710C20E835E240E050E06DE573E083
:101A30008CEF92E00E94840C8CEF92E00E946E0C7E
:101A400068E571E080912D0390912E030E946A1247
:101A50006AE070E080E090E00E941E0F41E060E0EC
:101A60008CEF92E00E94EF0C26E040E855E260E047
:101A700070E08DE593E00E94251161E08DE00E9409
:101A8000AA0F8BE493E00C942202673C78438F4FBB
:101A9000910551F46AE671E08DE593E00E947712BA
:101AA00061E08DE00C94E30F65E871E08DE593E073
:101AB0000C947712CF92DF92EF92FF920E94EF0E7A
:101AC000672B682B692B41F40E94EF0E6230710581
:101AD0008105910508F479C08CEF92E00E94440CD6
:101AE00060934C0370934D0380934E0390934F0388
:101AF000C0905003D0905103E0905203F0905303F4
:101B00006C157D058E059F0540F46093500370931E
:101B100051038093520390935303C0905003D0908D
:101B20005103E0905203F09053039B01AC012C1938
:101B30003D094E095F0969017A013AEFC316D104E4
:101B4000E104F10408F441C0609350037093510321
:101B500080935203909353038CEF92E00E946E0C9B
:101B60006BE871E080912D0390912E030E946A1220
:101B700063E971E080912D0390912E030E946A1217
:101B80000E94EF0EAB01BC012AE030E080912D03F2
:101B900090912E030E94341365E971E080912D032A
:101BA00090912E030E946A1265E070E080E090E060
:101BB0000E941E0F6AE070E080E090E00E941E0F1D
:101BC00061E08CEF92E00E94B10C6BE373E08BE478
:101BD00093E00E94EF02892B09F45EC080913F03DD
:101BE00090914003A0914103B09142038F3F4FEF8A
:101BF0009407A407B407E9F0809333039093340368
:101C0000A0933503B09336030E94EF0E6093370321
:101C1000709338038093390390933A0360913F03A4
:101C20007091400380914103909142030E94450DC1
:101C30002BC00E94EF0E609337037093380380939C
:101C4000390390933A038091330390913403A09128
:101C50003503B0913603873C9843AF4FB105A1F4EB
:101C60006EE971E08DE593E00E946A124AE050E06F
:101C700066E970E08DE593E00E942C136BEC71E057
:101C80008DE593E00E9477128BE493E0FF90EF9054
:101C9000DF90CF900C9439028091330390913403FC
:101CA000A0913503B0913603892B8A2B8B2B09F435
:101CB00041C0C0903703D0903803E0903903F090D2
:101CC0003A0386E9C80ED11CE11CF11C0E94EF0EFC
:101CD000C616D706E806F90668F580913303909199
:101CE0003403A0913503B0913603873C9843AF4F3E
:101CF000B105C1F46EEC71E08DE593E00E946A12CB
:101D00004AE050E066E970E08DE593E00E942C1314
:101D100067EF71E08DE593E00E94771260E08DE05F
:101D20000E94E30F10923303109234031092350394
:101D300010923603FF90EF90DF90CF9008956CE003
:101D400070E08BE493E00C941D021F920F920FB68B
:101D50000F9211242F933F938F939F93AF93BF9331
:101D60008091550390915603A0915703B091580369
:101D70003091540323E0230F2D3720F40196A11D49
:101D8000B11D05C026E8230F0296A11DB11D2093A9
:101D900054038093550390935603A0935703B09335
:101DA00058038091590390915A03A0915B03B0911D
:101DB0005C030196A11DB11D8093590390935A03B2
:101DC000A0935B03B0935C03BF91AF919F918F9100
:101DD0003F912F910F900FBE0F901F9018952FB726
:101DE000F894609155037091560380915703909138
:101DF00058032FBF08953FB7F894809159039091ED
:101E00005A03A0915B03B0915C0326B5A89B05C063
:101E10002F3F19F00196A11DB11D3FBF6627782FF6
:101E2000892F9A2F620F711D811D911D42E0660F4F
:101E3000771F881F991F4A95D1F70895CF92DF9297
:101E4000EF92FF92CF93DF936B017C010E94FB0E18
:101E5000EB01C114D104E104F10489F00E9458138C
:101E60000E94FB0E6C1B7D0B683E734090F381E07B
:101E7000C81AD108E108F108C851DC4FEACFDF9158
:101E8000CF91FF90EF90DF90CF900895789484B534
:101E9000826084BD84B5816084BD85B5826085BD66
:101EA00085B5816085BDEEE6F0E08081816080834C
:101EB000E1E8F0E01082808182608083808181602F
:101EC0008083E0E8F0E0808181608083E1EBF0E0F6
:101ED000808184608083E0EBF0E08081816080839A
:101EE000EAE7F0E080818460808380818260808383
:101EF0008081816080838081806880831092C100AE
:101F00000895833081F028F4813099F08230A1F077
:101F100008958730A9F08830B9F08430D1F48091E9
:101F200080008F7D03C0809180008F778093800038
:101F3000089584B58F7702C084B58F7D84BD0895E0
:101F40008091B0008F7703C08091B0008F7D809327
:101F5000B0000895CF93DF9390E0FC01E458FF4F69
:101F60002491FC01E057FF4F8491882349F190E0D0
:101F7000880F991FFC01E854FF4FA591B491825539
:101F80009F4FFC01C591D4919FB7611108C0F8948F
:101F90008C91209582238C93888182230AC06230A1
:101FA00051F4F8948C91322F309583238C9388814F
:101FB000822B888304C0F8948C91822B8C939FBFD2
:101FC000DF91CF9108950F931F93CF93DF931F92CB
:101FD000CDB7DEB7282F30E0F901E859FF4F8491E3
:101FE000F901E458FF4F1491F901E057FF4F0491B4
:101FF0000023C9F0882321F069830E94810F698141
:10200000E02FF0E0EE0FFF1FE255FF4FA591B491D6
:102010009FB7F8948C91611103C01095812301C082
:10202000812B8C939FBF0F90DF91CF911F910F91C8
:102030000895CF93DF93282F30E0F901E859FF4F3F
:102040008491F901E458FF4FD491F901E057FF4F13
:10205000C491CC2391F081110E94810FEC2FF0E00C
:10206000EE0FFF1FEC55FF4FA591B4912C912D233E
:1020700081E090E021F480E002C080E090E0DF9118
:10208000CF910895FC01818D228D90E0805C9F4F5F
:10209000821B91098F7399270895FC01918D828D80
:1020A000981731F0828DE80FF11D858D90E008952D
:1020B0008FEF9FEF0895FC01918D828D981761F04D
:1020C000828DDF01A80FB11D5D968C91928D9F5F6F
:1020D0009F73928F90E008958FEF9FEF08958FED9B
:1020E00091E1892B49F080E090E0892B29F00E9452
:1020F000DF1181110C9400000895FC01848DDF0133
:10210000A80FB11DA35ABF4F2C91848D90E001966A
:102110008F739927848FA689B7892C93A089B18959
:102120008C9180648C93938D848D981306C0028863
:10213000F389E02D80818F7D80830895CF93DF9395
:10214000EC01888D8823C9F0EA89FB89808185FDAF
:1021500005C0A889B9898C9186FD0FC00FB607FC10
:10216000F5CF808185FFF2CFA889B9898C9185FF51
:10217000EDCFCE010E947D10E7CFDF91CF91089582
:10218000CF92DF92FF920F931F93CF93DF931F9213
:10219000CDB7DEB76C0181E0D60158968C93589785
:1021A0005B969C915B975C968C915C97981307C0AB
:1021B0005096ED91FC915197808185FD2EC0F601DE
:1021C000038D10E00F5F1F4F0F731127F02EF601E4
:1021D000848DF81211C00FB607FCF9CFD6015096C6
:1021E000ED91FC915197808185FFF1CFC601698304
:1021F0000E947D106981EBCF838DE80FF11DE35ABA
:10220000FF4F6083D6015B960C935B975296ED91DE
:10221000FC915397808180620CC0D6015696ED9157
:10222000FC91579760835096ED91FC915197808176
:102230008064808381E090E00F90DF91CF911F91C7
:102240000F91FF90DF90CF900895BF92CF92DF92D1
:10225000EF92FF92CF93DF93EC016A017B01B22EE4
:10226000E889F98982E08083411581EE580761058C
:102270007105A1F060E079E08DE390E0A70196019F
:102280000E94801521503109410951095695479501
:1022900037952795211580E1380798F0E889F98965
:1022A000108260E874E88EE190E0A70196010E9438
:1022B00080152150310941095109569547953795A7
:1022C0002795EC85FD853083EE85FF852083188E6C
:1022D000EC89FD89B082EA89FB89808180618083F5
:1022E000EA89FB89808188608083EA89FB89808113
:1022F00080688083EA89FB8980818F7D8083DF917C
:10230000CF91FF90EF90DF90CF90BF9008951F92F4
:102310000F920FB60F9211242F938F939F93EF93E9
:10232000FF93E0916D03F0916E038081E091730360
:10233000F091740382FD12C09081809176038F5FCB
:102340008F7320917703821751F0E0917603F0E0CC
:10235000E35AFC4F958F8093760301C08081FF91F3
:10236000EF919F918F912F910F900FBE0F901F9023
:1023700018951F920F920FB60F9211242F933F932F
:102380004F935F936F937F938F939F93AF93BF937D
:10239000EF93FF938DE593E00E947D10FF91EF9105
:1023A000BF91AF919F918F917F916F915F914F916D
:1023B0003F912F910F900FBE0F901F9018958DE5B4
:1023C00093E00E94421021E0892B09F420E0822F43
:1023D00008951092600310925F0388EE93E0A0E0EE
:1023E000B0E08093610390936203A0936303B09382
:1023F00064038FE092E090935E0380935D0385EC2D
:1024000090E090936A038093690384EC90E090934A
:102410006C0380936B0380EC90E090936E03809349
:102420006D0381EC90E09093700380936F0382ECD6
:1024300090E0909372038093710386EC90E0909308
:1024400074038093730310927603109277031092B3
:102450007803109279030895CF92DF92EF92FF9262
:102460000F931F93CF93DF937C016A01EB0100E090
:1024700010E00C151D0571F06991D701ED91FC91EB
:102480000190F081E02DC7010995892B19F00F5FAC
:102490001F4FEFCFC801DF91CF911F910F91FF9098
:1024A000EF90DF90CF9008956115710581F0DB0109
:1024B0000D900020E9F7AD0141505109461B570B23
:1024C000DC01ED91FC910280F381E02D099480E024
:1024D00090E008950C945412DC01ED91FC91019070
:1024E000F081E02D09946DE071E00C9454120F938B
:1024F0001F93CF93DF93EC010E9454128C01CE0105
:102500000E947312800F911FDF91CF911F910F9145
:1025100008958F929F92AF92BF92CF92DF92EF92E7
:10252000FF920F931F93CF93DF93CDB7DEB7A197A1
:102530000FB6F894DEBF0FBECDBF7C01C42EE52FD1
:10254000CB01D22E19A221E02D1510F02AE0D22EB7
:102550008E010F5D1F4F8D2C912CA12CB12C6C2D59
:102560007E2FA50194010E9480158C2DD29E80198A
:102570001124015011098A3014F4805D01C0895C76
:10258000F8018083211531054105510521F0C22E46
:10259000E32FCA01E4CFB801C7010E945412A196EB
:1025A0000FB6F894DEBF0FBECDBFDF91CF911F9164
:1025B0000F91FF90EF90DF90CF90BF90AF909F90E2
:1025C0008F900895CF92DF92EF92FF920F931F9317
:1025D000CF93DF93EC016A017B012115310579F47A
:1025E000E881F9810190F081E02D642FDF91CF9196
:1025F0001F910F91FF90EF90DF90CF9009942A30B8
:102600003105E9F477FF1AC06DE20E946C128C016B
:1026100044275527BA014C195D096E097F092AE044
:10262000CE010E948912800F911FDF91CF911F91DF
:102630000F91FF90EF90DF90CF9008952AE0B701BF
:10264000A601CE01DF91CF911F910F91FF90EF90E6
:10265000DF90CF900C9489129A01AB01662757FD49
:102660006095762F0C94E2122115310541F4DC01BE
:10267000ED91FC910190F081E02D642F09940C9470
:1026800089129A01462F50E060E070E00C943413F8
:1026900008950E94460F0E9448130E940A0DCFE63B
:1026A000D0E10E945A0D2097E1F30E946F10F9CFFC
:1026B00008955058BB27AA270ED075C166D130F0B7
:1026C0006BD120F031F49F3F11F41EF45BC10EF486
:1026D000E095E7FB51C1E92F77D180F3BA17620784
:1026E00073078407950718F071F49EF58FC10EF4F7
:1026F000E0950B2EBA2FA02D0B01B90190010C0112
:10270000CA01A0011124FF27591B99F0593F50F429
:10271000503E68F11A16F040A22F232F342F442781
:10272000585FF3CF469537952795A795F040539579
:10273000C9F77EF41F16BA0B620B730B840BBAF049
:102740009150A1F0FF0FBB1F661F771F881FC2F7B4
:102750000EC0BA0F621F731F841F48F487957795C8
:102760006795B795F7959E3F08F0B3CF9395880F7F
:1027700008F09927EE0F979587950895D9D008F41A
:1027800081E008950CD00FC107D140F0FED030F0A9
:1027900021F45F3F19F0F0C0511139C1F3C014D1D9
:1027A00098F39923C9F35523B1F3951B550BBB2718
:1027B000AA2762177307840738F09F5F5F4F220FC5
:1027C000331F441FAA1FA9F333D00E2E3AF0E0E8BE
:1027D00030D091505040E695001CCAF729D0FE2F0A
:1027E00027D0660F771F881FBB1F2617370748079C
:1027F000AB07B0E809F0BB0B802DBF01FF27935852
:102800005F4F2AF09E3F510568F0B6C000C15F3FA0
:10281000ECF3983EDCF3869577956795B795F79539
:102820009F5FC9F7880F911D9695879597F9089531
:10283000E1E0660F771F881FBB1F621773078407CD
:10284000BA0720F0621B730B840BBA0BEE1F88F7DC
:10285000E095089504D06894B111D9C00895BCD012
:1028600088F09F5790F0B92F9927B751A0F0D1F079
:10287000660F771F881F991F1AF0BA95C9F712C003
:10288000B13081F0C3D0B1E00895C0C0672F782F78
:102890008827B85F39F0B93FCCF38695779567956F
:1028A000B395D9F73EF490958095709561957F4FDB
:1028B0008F4F9F4F0895E89409C097FB3EF4909581
:1028C0008095709561957F4F8F4F9F4F9923A9F009
:1028D000F92F96E9BB279395F69587957795679598
:1028E000B795F111F8CFFAF4BB0F11F460FF1BC0DC
:1028F0006F5F7F4F8F4F9F4F16C0882311F096E96F
:1029000011C0772321F09EE8872F762F05C066231C
:1029100071F096E8862F70E060E02AF09A95660FD5
:10292000771F881FDAF7880F9695879597F908958E
:10293000990F0008550FAA0BE0E8FEEF16161706D0
:10294000E807F907C0F012161306E407F50798F038
:10295000621B730B840B950B39F40A2661F0232B51
:10296000242B252B21F408950A2609F4A140A695CD
:102970008FEF811D811D089597F99F6780E870E0B2
:1029800060E008959FEF80EC089500240A941616E5
:10299000170618060906089500240A94121613064D
:1029A000140605060895092E0394000C11F48823DB
:1029B00052F0BB0F40F4BF2B11F460FF04C06F5FF7
:1029C0007F4F8F4F9F4F089557FD9058440F551FCD
:1029D00059F05F3F71F04795880F97FB991F61F0A1
:1029E0009F3F79F087950895121613061406551F18
:1029F000F2CF4695F1DF08C0161617061806991F84
:102A0000F1CF86957105610508940895E894BB2778
:102A100066277727CB0197F908950BD0C4CFB5DF90
:102A200028F0BADF18F0952309F0A6CFABCF112418
:102A3000EECFCADFA0F3959FD1F3950F50E0551F5D
:102A4000629FF001729FBB27F00DB11D639FAA2703
:102A5000F00DB11DAA1F649F6627B00DA11D661F52
:102A6000829F2227B00DA11D621F739FB00DA11D73
:102A7000621F839FA00D611D221F749F3327A00D2D
:102A8000611D231F849F600D211D822F762F6A2FC9
:102A900011249F5750408AF0E1F088234AF0EE0F4E
:102AA000FF1FBB1F661F771F881F91505040A9F75B
:102AB0009E3F510570F060CFAACF5F3FECF3983E88
:102AC000DCF3869577956795B795F795E7959F5FC2
:102AD000C1F7FE2B880F911D9695879597F908955C
:102AE000DB018F939F930E94A215BF91AF91A29F8C
:102AF000800D911DA39F900DB29F900D11240895FC
:102B0000A1E21A2EAA1BBB1BFD010DC0AA1FBB1FF1
:102B1000EE1FFF1FA217B307E407F50720F0A21B63
:102B2000B30BE40BF50B661F771F881F991F1A94D0
:102B300069F760957095809590959B01AC01BD01FA
:102B4000CF0108950E94EA15A59F900DB49F900DA6
:102B5000A49F800D911D112408950F93083090F0CB
:102B6000982F872F762F652F542F432F322F222710
:102B70000850F4CF220F331F441F551F661F771FC5
:102B8000881F991F0A95B2F70F91089597FB10F8C7
:102B9000169400080F93083098F00850232F342F14
:102BA000452F562F672F782F892F902DF4CF05941E
:102BB0009795879577956795579547953795279575
:102BC0000A95AAF70F910895EE0FFF1F0590F49153
:102BD000E02D0994A29FB001B39FC001A39F700D87
:102BE000811D1124911DB29F700D811D1124911D15
:062BF0000895F894FFCFE8
:102BF600564D4450435F005F564D4450430D0A0006
:102C06004572726F723A20417474656D70742074E7
:102C16006F20736574206120726561642D6F6E6C20
:102C260079207661726961626C65206F72206461D9
:102C360074612074797065206E6F7420737570707E
:102C46006F727465640D0A00564D4450565F317CB0
:102C5600315F564D4450560D0A00526563656976DC
:102C6600656420353A205475726E696E67206F6E02
:102C7600204C4544004F7468657200564D445045DB
:102C86005F31007C005F564D4450450D0A00526589
:102C9600636569766564205265706561743A204B98
:102CA600656570696E67204C4544206F6E20666FBF
:102CB6007220616E6F7468657220006D73005265D4
:102CC600706561746520636F6D6D616E6420686107
:102CD600736E2774206265656E207265636569761A
:102CE600656420696E20006D732E205475726E69BE
:102CF6006E67206F6666204C45440000000000C0E9
:102D0600102C1242105B104D109E106E616E006901
:0A2D16006E66006F7666002E000066
:00000001FF
